:020000040000FA
:0600000080EF1EF012006B
:0600080004EF08F01200F5
:060018000CEF08F01200DD
:0610000080EF1EF012005B
:021006001200D6
:0610080016EF08F01200D3
:061018001DEF08F01200BC
:02101E000100CF
:0C102000323D000060000000580000009D
:04102C00DACFE4FF34
:10103000E652E552E5CFDAFF1100D8CFE4FFE0CF6A
:10104000E4FFE46EDACFE4FFE652F2A40DD0F294AE
:10105000FA0ED76E240ED66E0001B32BAF51B35DDE
:1010600003E3B36B010EB46FE552E5CFDAFFE55051
:10107000E5CFE0FFE5CFD8FF100004D877EC13F000
:10108000D0D9FCD70F0EC11202D8E7EF12F0D9CF9A
:10109000E6FFE1CFD9FF040EE126010EF36E020E4A
:1010A000F3CFDBFFF00E936E94688B687E6A7F6AE5
:1010B000F18E0001C86BC96BCA6BCB6BCC6BCD6B6F
:1010C000CE6BCF6B0001676B686B696B6A6BDF6A15
:1010D000400EDF5C10E2DF50EA6A590FE96E020E43
:1010E000EA22EF6ADF50EA6A990FE96E020EEA22FD
:1010F000EF6ADF2AEDD702014C6B4CC24BF24CC2B7
:101100004AF24CC249F24F6B4FC24EF24FC24DF2FF
:101110000201486B48C247F248C246F248C245F253
:1011200048C244F248C243F248C242F248C241F2C5
:101130000001BB6BBBC0BAF0BBC0B9F0BBC0B8F01C
:10114000C76BC7C0C6F0C7C0C5F0C7C0C4F0C7C032
:10115000C3F0C7C0C2F0C7C0C1F0C7C0C0F0BC6B0D
:10116000BD6B800EBE6FBF6FDF6A0C0EDF5C56E298
:10117000EA6ADF34FE0BEA36E96ED00EE926000E8D
:10118000EA22EF6AEA6ADF34FE0BEA36E96ED00E35
:10119000E926000EEA22010EE926000EEA22EF6A95
:1011A000010EDB6A030EF36E010EDBCFF4FFF3508A
:1011B000F45C32E2DF50030DF3CF0DF0F4CF0EF00C
:1011C0008B0E0D26000E0E22010EDB5000010D24A9
:1011D0000B6E000E0E200C6E0BC0E6FFE66E030ECB
:1011E000E66E050EE66E010EDBCFE6FF030EDF02B4
:1011F000F350E552E724050DF350E66EE66A3EEC47
:101200001CF00F6E060EE15E0F50E76E030EE7CF87
:10121000DBFF010EDB2AC6D7DF2AA7D7AF0EE66EAB
:10122000000EE66E030EE66E050EE66EB40EE66E7A
:10123000E6683EEC1CF00B6E060EE15E0B50E76EAE
:10124000030EE7CFDBFFB00EE66E000EE66E030E78
:10125000E66E050EE66EB90EE66EE6683EEC1CF034
:101260000B6E060EE15E0B50E76E030EE7CFDBFF61
:10127000B10EE66E000EE66E030EE66E050EE66E2D
:10128000BE0EE66EE6683EEC1CF00B6E060EE15EEE
:101290000B50E76E030EE7CFDBFFB20EE66E000EDB
:1012A000E66E030EE66E050EE66EC30EE66EE668AB
:1012B0003EEC1CF00B6E060EE15E0B50E76E030E6B
:1012C000E7CFDBFF00018B5101E196D08B0501E1F7
:1012D00093D0020E8B5D01E18FD0030E8B5D01E197
:1012E0008BD0DF6A0C0EDF5C3BE2010EDB6A030E83
:1012F000F36E010EDBCFF4FFF350F45C2FE2DF500E
:10130000030DF3CF0BF0F4CF0CF08B0E0B26000E79
:101310000C22010EDB500F010B24E96E000E0C2095
:10132000EA6EEF6A050EE66EE66A010EDBCFE6FFB7
:10133000030EDF02F350E552E724050DF350E66E8D
:10134000E66AC4EC1CF0E552E552E552E552E76E60
:10135000030EE7CFDBFF010EDB2AC9D7DF2AC2D796
:101360000001B16B040EAF6F020EB06F010EB26FD1
:10137000050EE66EAFC0E6FFB40EE66EE668C4EC9E
:101380001CF0E552E552E552E552E76E030EE7CF59
:10139000DBFF050EE66EB0C0E6FFB90EE66EE6684E
:1013A000C4EC1CF0E552E552E552E552E76E030E3F
:1013B000E7CFDBFF050EE66EB1C0E6FFBE0EE66EC0
:1013C000E668C4EC1CF0E552E552E552E552E76EE2
:1013D000030EE7CFDBFF050EE66EB2C0E6FFC30EDD
:1013E000E66EE668C4EC1CF0E552E552E552E552C3
:1013F000E76E030EE7CFDBFF820ED56EFA0ED76ED7
:10140000240ED66ED08EF194F28AF28CF28E040EF7
:10141000E15C02E2E16AE552E16EE552E7CFD9FF15
:101420001200D9CFE6FFE1CFD9FF0D0EE126000172
:10143000B40501E03FD30001B46B8150200B200ABA
:1014400001E0010E800DF3CF11F08150400B400AF6
:1014500001E0010E400DF3CF10F08150800B800AA7
:1014600001E0010E200DF3CF0FF08250800B800AB7
:1014700001E0010E100DF3CF0EF08250400B400A38
:1014800001E0010E080DF3CF0DF08250080B080AA1
:1014900001E0010E040DF3CF0CF08250100B100A86
:1014A00001E0010EE8240B6E8250200B200A01E0BF
:1014B000010E0B100C100D100E100F10101011104B
:1014C00000016D6F8250010B010A080DF3CF0DF082
:1014D0008250020B020A01E0010E040DF3CF0CF062
:1014E0008250040B040A01E0010EE8240B6E8150C7
:1014F000100B100A01E0010E0B100C100D10000172
:101500006E6F00016D51E66ED9500B0FE96EDACFA8
:10151000EAFFE552E750EE6EED6A6EC00BF00BC0CD
:101520000CF00B6AD9500B0FE96EDACFEAFF0B50C3
:10153000EE120C50ED12DF6A0C0EDF5C01E3ACD250
:10154000DF50FE0BE8420B6E010E0B5204E0E84642
:10155000FE0B0B06FCE10001B11502E0010E01D00B
:10156000000E000901E10CD2DF50010B01E004D2B2
:101570000B0EDBCF0DF00C0EDBCF0EF0DF500DC0ED
:101580000BF00EC00CF005E0D8900C320B32E804E2
:10159000FBE1030E0B16000E0C16080E0BC0DBFF52
:1015A000090E0CC0DBFF020EE76E080EDBCF0DF05C
:1015B000090EDBCF0EF0E7500D160E6AD8900E32F2
:1015C0000D32010EE76E080EDBCF0FF0090EDBCFF8
:1015D00010F0E7500F16106AD8900F3610360D50E5
:1015E0000F100B6E0E5010100C6E080E0BC0DBFFB0
:1015F000090E0CC0DBFFDF506FC00BF070C00CF0A9
:1016000005E0D8900C320B32E804FBE1030E0B1618
:10161000000E0C16030E0B1801E10C5001E187D0EF
:10162000020E0B1801E10C505AE0010E0B1801E1FB
:101630000C502DE00B5001E10C5001E0A0D0D9502E
:10164000080FE96EDACFEAFFEE50ED1002E1000E6E
:1016500019D0D950080FE96EDACFEAFF010EEE1863
:1016600001E1ED5002E1010E0DD0D950080FE96EF5
:10167000DACFEAFF020EEE1801E1ED5002E1FF0EB3
:1016800001D0FE0EE76E0A0EE7CFDBFF78D0D9500F
:10169000080FE96EDACFEAFFEE50ED1002E1FF0E1F
:1016A00019D0D950080FE96EDACFEAFF010EEE1813
:1016B00001E1ED5002E1000E0DD0D950080FE96EA6
:1016C000DACFEAFF020EEE1801E1ED5002E1FE0E64
:1016D00001D0010EE76E0A0EE7CFDBFF50D0D950E4
:1016E000080FE96EDACFEAFFEE50ED1002E1010ECD
:1016F00019D0D950080FE96EDACFEAFF010EEE18C3
:1017000001E1ED5002E1FE0E0DD0D950080FE96E57
:10171000DACFEAFF020EEE1801E1ED5002E1000E11
:1017200001D0FF0EE76E0A0EE7CFDBFF28D0D950BD
:10173000080FE96EDACFEAFFEE50ED1002E1FE0E7F
:1017400019D0D950080FE96EDACFEAFF010EEE1872
:1017500001E1ED5002E1FF0E0DD0D950080FE96E06
:10176000DACFEAFF020EEE1801E1ED5002E1010EC0
:1017700001D0000EE76E0A0EE7CFDBFF00D0030EAC
:101780000D6E0E6ADF500DC00BF00EC00CF005E0C0
:10179000D8900B360C36E804FBE10B1E0C1ED9501A
:1017A0000B0FE96EDACFEAFF0B50EE160C50ED1678
:1017B0000A0EDB50FE0A01E190D0010A4CE0FE0A5D
:1017C0001AE0010A01E0ABD0030E0D6E0E6ADF5085
:1017D0000DC00BF00EC00CF005E0D8900B360C36A7
:1017E000E804FBE10B1E0C1E0B50000171170C509E
:1017F0000001721794D0DF508EEC1EF0F3CF0BF087
:10180000F4CF0CF0D9500B0FE96EDACFEAFF0B5092
:10181000EE120C50ED12030E0D6E0E6ADF500DC06D
:101820000BF00EC00CF005E0D8900B360C36E80437
:10183000FBE10B1E0C1E0B50000171170C50000138
:101840007217DF508EEC1EF0F35000017113F4504C
:101850000001721364D0020E0D6E0E6ADF500DC0CF
:101860000BF00EC00CF005E0D8900B360C36E804F7
:10187000FBE1D9500B0FE96EDACFEAFF0B50EE1205
:101880000C50ED12030E0D6E0E6ADF500DC00BF002
:101890000EC00CF005E0D8900B360C36E804FBE1E6
:1018A0000B1E0C1E0B50000171170C50000172171B
:1018B000020E0D6E0E6ADF500DC00BF00EC00CF064
:1018C00005E0D8900B360C36E804FBE10B50000124
:1018D00071130C500001721322D0030E0F6E106AA8
:1018E000DF500FC00DF010C00EF005E0D8900D369F
:1018F0000E36E804FBE10001000171510D140B6E7E
:101900000001000172510E140C6ED9500B0FE96EDC
:10191000DACFEAFF0B50EE120C50ED1200D0030E9E
:101920000D6E0E6ADF500DC00BF00EC00CF005E01E
:10193000D8900B360C36E804FBE10B1E0C1E0B5046
:1019400000016F170C5000017017080EDBCF0DF06F
:10195000090EDBCF0EF0DF500DC00BF00EC00CF007
:1019600005E0D8900B360C36E804FBE10B50000183
:101970006F130C5000017013070EB2C0DBFF03D0D1
:10198000070EB0C0DBFF0B0EDBCF0DF00C0EDBCF74
:101990000EF0DF508EEC1EF00D50F3140B6E0E5057
:1019A000F4140C6E0B500C1002E0010E01D0000E6E
:1019B000000941E0EA6ADF34FE0BEA36E96ED00E38
:1019C000E926000EEA22010EE926000EEA22EFCFF8
:1019D0000BF0070EDB500B5C0EE2EA6ADF34FE0B05
:1019E000EA36E96ED00EE926000EEA22010EE9265B
:1019F000000EEA22EF2AEA6ADF34FE0BEA36E96ECD
:101A0000D00EE926000EEA22010EE926000EEA2297
:101A1000EFCF0BF0070EDB500B5C0CE1EA6ADF3412
:101A2000FE0BEA36E96ED00EE926000EEA22070E1A
:101A3000DBCFEFFF2FD0EA6ADF34FE0BEA36E96E28
:101A4000D00EE926000EEA22EF5000080AE2EA6A08
:101A5000DF34FE0BEA36E96ED00EE926000EEA22EC
:101A6000EF06EA6ADF34FE0BEA36E96ED00EE926AD
:101A7000000EEA22EF500EE1EA6ADF34FE0BEA368E
:101A8000E96ED00EE926000EEA22010EE926000ECC
:101A9000EA22EF6ADF2A50D50B0EDBCF0BF00C0EDB
:101AA000DBCF0CF00CC00BF00C6A0BC06EF00B0E11
:101AB000DBCF6DF0200E0101E76E4019E8AE02D0D9
:101AC000E73402D0E750405D03E36450020B02E0CC
:101AD0006CEF12F0020EF36E020EF3CFDBFF00018B
:101AE000E86B0001E96B0001EA6B0001EB6B0001A0
:101AF000EC6B0001ED6B0001EE6B0001EF6B000180
:101B0000F06B0001F16BDF6A0C0EDF5C01E3F5D1D5
:101B1000DF50FE0BE8420B6E010E0B5204E0E8466C
:101B2000FE0B0B06FCE10001B11502E0010E01D035
:101B3000000E000904E0070EB2C0DBFF03D0070E61
:101B4000B0C0DBFFEA6ADF34FE0BEA36E96ED00E86
:101B5000E926000EEA22010EE926000EEA22EFCF66
:101B60000BF0070EDB500B5C01E0BED1DF50EA6AE0
:101B7000730FE96E000EEA22010EEF6EDF50030DC7
:101B8000F3CFE9FFF4CFEAFF8B0EE926000EEA223D
:101B9000EF50030A01E133D1010A01E1FBD0030A4E
:101BA00001E0A0D1DF50030DF3CFE9FFF4CFEAFF4E
:101BB0008B0EE926000EEA22010EE926000EEA222B
:101BC000EF50090A01E1A1D0010A01E18AD00F0A10
:101BD00074E0010A5BE0030A42E0010A29E0070A17
:101BE00010E0010A0BE0030A06E0010A01E0CED092
:101BF0000001B881CBD00001B883C8D00001B885FE
:101C0000C5D00001010EE86F0001EE5110E1DF5078
:101C1000030DF3CFE9FFF4CFEAFF8B0EE926000EA8
:101C2000EA22020EE926000EEA22EFCFEEF0AED055
:101C30000001010EE96F0001EF5110E1DF50030DCB
:101C4000F3CFE9FFF4CFEAFF8B0EE926000EEA227C
:101C5000020EE926000EEA22EFCFEFF097D0000146
:101C6000010EEA6F0001F05110E1DF50030DF3CFD8
:101C7000E9FFF4CFEAFF8B0EE926000EEA22020EFE
:101C8000E926000EEA22EFCFF0F080D00001010E2D
:101C9000EB6F0001F15110E1DF50030DF3CFE9FFCD
:101CA000F4CFEAFF8B0EE926000EEA22020EE926A7
:101CB000000EEA22EFCFF1F069D00001010EEC6FC7
:101CC000DF50030DF3CFE9FFF4CFEAFF8B0EE926D7
:101CD000000EEA22020EE926000EEA22EFCFF2F011
:101CE00055D00001010EED6FDF50030DF3CFE9FF7A
:101CF000F4CFEAFF8B0EE926000EEA22020EE92657
:101D0000000EEA22EFCFF3F041D0DF50030DF3CF06
:101D1000E9FFF4CFEAFF8B0EE926000EEA22020E5D
:101D2000E926000EEA22EFCFEEF0DF50030DF3CFED
:101D3000E9FFF4CFEAFF8B0EE926000EEA22020E3D
:101D4000E926000EEA22EFCFEFF0DF50030DF3CFCC
:101D5000E9FFF4CFEAFF8B0EE926000EEA22020E1D
:101D6000E926000EEA22EFCFF0F0DF50030DF3CFAB
:101D7000E9FFF4CFEAFF8B0EE926000EEA22020EFD
:101D8000E926000EEA22EFCFF1F000D00001050EA7
:101D9000B66FA9D0020EDB5008082DE0DF50030D0E
:101DA000F3CFE9FFF4CFEAFF8B0EE926000EEA221B
:101DB000020EE926000EEA22EF500001C013DF50A8
:101DC000030DF3CFE9FFF4CFEAFF8B0EE926000EF7
:101DD000EA22010EE926000EEA22EF50E66E020E1C
:101DE000DB50EA6AC00FE96E000EEA22E552E750C6
:101DF000EF6E020EDB2A0001050EB76F74D0DF50C4
:101E0000030DF3CFE9FFF4CFEAFF8B0EE926000EB6
:101E1000EA22010EE926000EEA22EF50010B02E051
:101E20000001BF6BDF50030DF3CFE9FFF4CFEAFFF2
:101E30008B0EE926000EEA22010EE926000EEA22A8
:101E4000EF50020B02E00001BF69DF50030DF3CF3A
:101E5000E9FFF4CFEAFF8B0EE926000EEA22010E1D
:101E6000E926000EEA22EF50040B02E00001BE6BEF
:101E7000DF50030DF3CFE9FFF4CFEAFF8B0EE92625
:101E8000000EEA22010EE926000EEA22EF50080BAE
:101E900002E00001BE69DF50030DF3CFE9FFF4CF8C
:101EA000EAFF8B0EE926000EEA22020EE926000E5A
:101EB000EA22EF500001BC13DF50030DF3CFE9FF1E
:101EC000F4CFEAFF8B0EE926000EEA22010EE92686
:101ED000000EEA22EF380F0B0001BD130001050EC2
:101EE000B56F01D000D007D0DF50EA6A730FE96EFA
:101EF000000EEA22EF6ADF2A07D60001CA51CB1191
:101F000002E1000E08D0CAC0E9FFCBC0EAFFEF50E3
:101F1000800B01E0010E00092CE1BCC049F2BDC0FC
:101F20004AF2BEC04BF2BFC04CF20001BC6B0001D4
:101F3000BD6B0001800EBE6F0001800EBF6F0001FF
:101F4000B551000816E2040EE66E490EE66E020E6A
:101F5000E66E010EE66E010EE66E6DEC14F00B6E91
:101F6000050EE15E0B50F3CFCAF0F4CFCBF00001C9
:101F7000B50700016751681102E1000E08D067C083
:101F8000E9FF68C0EAFFEF50800B01E0010E000995
:101F900001E0A2D202015951560A01E11BD2370ACF
:101FA00001E1DED1340A01E1CAD16D0A01E187D134
:101FB0000F0A01E114D1B50A01E1ADD0030A01E134
:101FC0007BD0010A01E075D2050E02017E5D73E14E
:101FD000AA0E02017F5D6FE1550E0201805D6BE18B
:101FE0000B0E0201815D67E10E0E0201825D63E16D
:101FF000DF6A0C0EDF5C5FE2010EDB6A030EF36E3C
:10200000010EDBCFF4FFF350F45C53E2010EDBCFA3
:10201000E6FF030EDF02F328E552E724EA6A590FD0
:10202000E96E020EEA22EF50E66EDF50030DF3CFA9
:102030000BF0F4CF0CF08B0E0B26000E0C22010ED1
:10204000DB500F010B24E96E000E0C20EA6EE55206
:10205000E750EF6E050EE66EDF50030DF3CF0BF089
:10206000F4CF0CF08B0E0B26000E0C22010EDB5071
:102070000F010B24E96E000E0C20EA6EEF50E66EA5
:10208000010EDBCFE6FF030EDF02F350E552E7243B
:10209000050DF350E66EE66AC4EC1CF0E552E5521D
:1020A000E552E552E76E060EE7CFDBFF010EDB2AB5
:1020B000A5D7DF2A9ED7FDD10201810E996F6DC091
:1020C0009AF20F0E00016E1502019B6F000169511B
:1020D0006A1102E1000E08D069C0E9FF6AC0EAFF98
:1020E000EF50800B01E0010E000914E1400EE66E96
:1020F000990EE66E020EE66E010EE66E020EE66EBA
:102100006DEC14F00B6E050EE15E0B50F3CF69F031
:10211000F4CF6AF0CED10201820E996F050E020152
:102120005A5D5CE1AA0E02015B5D58E1550E0201A9
:102130005C5D54E10B0E02015D5D50E10E0E02018B
:102140005E5D4CE15FC2AFF060C2B0F061C2B1F061
:1021500062C2B2F0050EE66EAFC0E6FFB40EE66EE8
:10216000E668C4EC1CF0E552E552E552E552E76E34
:10217000060EE7CFDBFF050EE66EB0C0E6FFB90E38
:10218000E66EE668C4EC1CF0E552E552E552E55215
:10219000E76E060EE7CFDBFF050EE66EB1C0E6FF89
:1021A000BE0EE66EE668C4EC1CF0E552E552E55260
:1021B000E552E76E060EE7CFDBFF050EE66EB2C016
:1021C000E6FFC30EE66EE668C4EC1CF0E552E5528D
:1021D000E552E552E76E060EE7CFDBFF6AD100015C
:1021E00069516A1102E1000E08D069C0E9FF6AC0B6
:1021F000EAFFEF50800B01E0010E00095FE10201F0
:10220000370E996FDF6A0C0EDF5C34E2010EDB6A79
:10221000030EF36E010EDBCFF4FFF350F45C28E203
:10222000DF50030DF3CF0BF0F4CF0CF08B0E0B2629
:10223000000E0C22010EDB500F010B24E96E000E84
:102240000C20EA6EEF50E66E010EDBCFE6FF030EC8
:10225000DF02F350E552E724010FEA6A990FE96EB5
:10226000020EEA22E552E750EF6E010EDB2AD0D7CC
:10227000DF2AC9D7000169516A1102E1000E08D0B6
:1022800069C0E9FF6AC0EAFFEF50800B01E0010E70
:10229000000914E1400EE66E990EE66E020EE66E3F
:1022A000010EE66E020EE66E6DEC14F00B6E050E7E
:1022B000E15E0B50F3CF69F0F4CF6AF0FAD0000181
:1022C00069516A1102E1000E08D069C0E9FF6AC0D5
:1022D000EAFFEF50800B01E0010E00092FE102013F
:1022E000380E996FAFC09AF2B0C09BF2B1C09CF2A9
:1022F000B2C09DF2000169516A1102E1000E08D0DE
:1023000069C0E9FF6AC0EAFFEF50800B01E0010EEF
:10231000000914E1400EE66E990EE66E020EE66EBE
:10232000010EE66E020EE66E6DEC14F00B6E050EFD
:10233000E15E0B50F3CF69F0F4CF6AF0BAD064924B
:10234000646ADF6AFF0EDF5C09E2E868E85004E0D7
:10235000E80600D000D0FAD7DF2AF4D7FF00A9D0D2
:102360000201610E996F02019A6B050EE66EE66836
:10237000000EE66EE66AC4EC1CF0E552E552E5524A
:10238000E552E76E060EE7CFDBFF000169516A11E7
:1023900002E1000E08D069C0E9FF6AC0EAFFEF5011
:1023A000800B01E0010E000914E1400EE66E990E6B
:1023B000E66E020EE66E010EE66E020EE66E6DEC45
:1023C00014F00B6E050EE15E0B50F3CF69F0F4CF05
:1023D0006AF06FD00201560E996F600EE66E000E25
:1023E000E66E62EC1EF0E552E552040EF3CFDBFF21
:1023F0000B6A040EDB50E76E0B18E8AE02D0E73430
:1024000002D0E7500B5C2EE2040EDBCF0CF03E0E48
:10241000E76E0C18E8AE02D00C3403D0E750D88039
:102420000C5420E3DF6A040EDB50DF5C13E2DF5064
:10243000EA6A600FE96E000EEA22EF50E66EDF28CE
:10244000EA6A990FE96E020EEA22E552E750EF6E52
:10245000DF2AE9D7DF28EA6A990FE96E020EEA223D
:10246000EF6A02D002019A6B000169516A1102E120
:10247000000E08D069C0E9FF6AC0EAFFEF50800B88
:1024800001E0010E000914E1400EE66E990EE66EC1
:10249000020EE66E010EE66E020EE66E6DEC14F0B4
:1024A0000B6E050EE15E0B50F3CF69F0F4CF6AF0CE
:1024B00000D0400EE66E590EE66E020EE66EE66A3B
:1024C000020EE66E6DEC14F00B6E050EE15E0B5025
:1024D000F3CF67F0F4CF68F00D0EE15C02E2E16A41
:1024E000E552E16EE552E7CFD9FF1200120012006B
:1024F0001200120088EF1DF012001E0EE66E010E93
:10250000E66E36EC14F0E552E5521E0EE66E020E53
:10251000E66E36EC14F0E552E552120064840001D8
:10252000080EF46F070EF56FF407000EF55BF4511B
:10253000F511FAE164941200D9CFE6FFE1CFD9FF9B
:10254000FD0EDBCF06F0FE0EDBCF07F0720E061895
:1025500001E1075033E0E868061802E17F0E071832
:102560002BE0740E061801E1075024E0750E0618E2
:1025700001E107501DE0730E061801E1075016E057
:10258000030E061801E107500FE0020E061801E1E4
:10259000075008E0010E061801E1075001E010D0D5
:1025A000ACDF0FD0A9DF0DD0A5DF0BD0A1DF09D0A4
:1025B0009DDF07D09CDF05D09CDF03D0000001D059
:0E25C00000D0010E00D0E552E7CFD9FF120087
:0225CE00D9CF63
:1025D000E6FFE1CFD9FFE652A0940F015F6B626A7C
:1025E000536B020EE66EE66AE66A540EE66E0F0E56
:1025F000E66E48EC1EF00B6E050EE15E0B50160EFB
:10260000616E0F019F0E5B6F7B0E606EDF6ADF50A5
:102610000B6E0C6A0C0E0B5C000E0C5810E2DF50B7
:10262000040DF3CFE9FFF4CFEAFF000EE926020E16
:10263000EA22EE6AEE6AEE6AEE6ADF2AE8D7648C76
:102640000F015C6B6498649C62A607D062960101DE
:10265000576B5C6B5D6B5E6BF7D70101010E706FA2
:10266000716F726B736B646BDF6A030EDF5C26E263
:10267000EA6ADF34FE0BEA36E96E4D0EE926010EFA
:10268000EA22EE6AED6AEA6ADF34FE0BEA36E96EA8
:10269000470EE926010EEA22EE6AED6ADF50EA6A89
:1026A000680FE96E010EEA22EF6ADF50EA6A6B0FEB
:1026B000E96E010EEA22EF6ADF2AD7D70101080E80
:1026C0004D6F020E4E6F0F01160E536F0201300E4A
:1026D000026F020E036F080E016F840E006F01017E
:1026E000416B406BE552E552E7CFD9FF1200D9CFDD
:1026F000E6FFE1CFD9FFE6520101405110E1646AE3
:10270000606A160E616E0F019F0E5B6F7B0E606E2E
:1027100064B602D06486FCD70101010E406F40050B
:1027200008E164BA06D0626A606A60806088020E5E
:10273000406F6250040B06E06050040B03E06294AB
:102740004EEC19F064B252D06250010B08E06050B8
:10275000010B05E03CDF0101040E406F6290625006
:10276000100B06E06050100B03E039EC19F0629892
:1027700062AC12D060AC0FD0010EE66EE66A000EBD
:10278000E66EE66A730EE66EE66A9CEC12F00B6E7D
:10279000060EE15E0B50629C6250200B05E060501B
:1027A000200B02E01FEC19F06250020B14E06050A5
:1027B000020B11E0010EE66EE66A000EE66EE66AB6
:1027C000E6687F0EE66E9CEC12F00B6E060EE15E84
:1027D0000B500F015F6B040E0101E76E4019E8AE6C
:1027E00002D0E73402D0E750405D02E2A19439D034
:1027F00060A636D0DF6A040EDF5C32E262A630D01B
:1028000063CF65F101016551780BE842E842E84287
:10281000666F629665B506D06651EA6A6B0FE96E1F
:10282000010E05D06651EA6A680FE96E010EEA22D0
:10283000EF70665103E165EC19F010D0000EE66E02
:10284000E66A650EE66E010EE66E720EE66EE66AEA
:102850009CEC12F00B6E060EE15E0B50DF2ACBD71C
:10286000A194E552E552E7CFD9FF1200D9CFE6FF98
:10287000E1CFD9FF020EE126FD0EDBA407D0E66A08
:10288000FE0EDBCFE6FFF7D9E552E552FD0EDBA2E7
:1028900008D0010EE66EFE0EDBCFE6FFECD9E55266
:1028A000E552FE0EDB500C6A530F0B6E0F0E0C221E
:1028B0000BC0DEFF0CC0DDFFDECFE9FFDDCFEAFF9E
:1028C000FD0EDBCFEFFF020EE15C02E2E16AE552B2
:1028D000E16EE552E7CFD9FF1200D9CFE6FFE1CF95
:1028E000D9FF020EE126FD0EDB500AE0FE0EEA6A79
:1028F000DB34FE0BEA36E96E4D0EE926010E09D0F7
:10290000FE0EEA6ADB34FE0BEA36E96E470EE92674
:10291000010EEA22EECFDEFFEDCFDDFFD9CFE9FFDA
:10292000DACFEAFFEE50ED1003E1F36AF46A44D027
:10293000DECFE9FFDDCFEAFF020EE926000EEA2234
:10294000FB0EDBCFEEFFFC0EDBCFEDFFDECFE9FFB2
:10295000DDCFEAFFEE52FA0EDBCFEFFF400EDECF07
:10296000E9FFDDCFEAFFE850EF16880EDECFE9FF82
:10297000DDCFEAFFE850EF12FD0EDB500AE0FE0E5D
:10298000EA6ADB34FE0BEA36E96E4D0EE926010EEB
:1029900009D0FE0EEA6ADB34FE0BEA36E96E470E1A
:1029A000E926010EEA22EF74DECF0BF0DDCF0CF04A
:1029B0000BC0F3FF0CC0F4FF020EE15C02E2E16A1F
:1029C000E552E16EE552E7CFD9FF1200D9CFE6FF1D
:1029D000E1CFD9FF020EE126FE0EDB5020E145C11A
:1029E000E9FF46C1EAFFEE52080EEF6E45C1E9FF6E
:1029F00046C1EAFF020EE926000EEA22300EEE6E14
:102A0000020EED6E45C1E9FF46C1EAFF8C0EEF6E86
:102A10004DC1E9FF4EC1EAFF840EEF6E3BD0FD0EC3
:102A2000DB50E8240D6EFE0EDB50040DF3500D2438
:102A3000040DF3CF0BF0F4CF0CF0000E0B26020EBA
:102A40000C220BC0DEFF0CC0DDFF840EDECFE9FFE1
:102A5000DDCFEAFFE850EF12FD0EDB50E8240D6EEB
:102A6000FE0EDB50040DF3500D24010F040DF3CFC7
:102A70000BF0F4CF0CF0000E0B26020E0C220BC054
:102A8000DEFF0CC0DDFF840EDECFE9FFDDCFEAFF05
:102A9000E850EF12020EE15C02E2E16AE552E16EFB
:102AA000E552E7CFD9FF1200D9CFE6FFE1CFD9FF3A
:102AB00064A84ED0FE0EEA6ADB34FE0BEA36E96EFD
:102AC0004D0EE926010EEA22EE50EFCFEAFFE96E45
:102AD000400EEE16EE6AEE6AEE6AFE0EEA6ADB342D
:102AE000FE0BEA36E96E4D0EE926010EEA22EE50A3
:102AF000EFCFEAFFE96EEE7CFE0EEA6ADB34FE0BF6
:102B0000EA36E96E4D0EE926010EEA22EF74400E18
:102B10000B6EFE0EEA6ADB34FE0BEA36E96E4D0EF2
:102B2000E926010EEA22EE50EFCFEAFFE96E0B50E4
:102B3000EF16FE0EEA6ADB34FE0BEA36E96E4D0E46
:102B4000E926010EEA22EE50EFCFEAFFE96EEF7CB4
:102B5000E552E7CFD9FF1200010170514DE1010E9E
:102B6000706F715149E1010E716F020E545D0DE1FC
:102B70004DC1E9FF4EC1EAFFEE52EF6A4DC1E9FFD8
:102B80004EC1EAFFC80EEF6E1200540535E1676BC7
:102B900043C1E9FF44C1EAFFEE52080EEF6E43C1A4
:102BA000E9FF44C1EAFF020EE926000EEA22300ED8
:102BB000EE6E020EED6E43C1E9FF44C1EAFF840EE2
:102BC000EF6E010E676F45C1E9FF46C1EAFFEE52A5
:102BD000080EEF6E45C1E9FF46C1EAFF020EE92685
:102BE000000EEA22300EEE6E020EED6E45C1E9FFD8
:102BF00046C1EAFF800EEF6E12000101726B736B2B
:102C0000020E545D18E145C1E9FF46C1EAFFEE52EC
:102C1000080EEF6E45C1E9FF46C1EAFF020EE92644
:102C2000000EEA22380EEE6E020EED6E45C1E9FF8F
:102C300046C1EAFF1DD058510201365D01015951CC
:102C40000201375904E236C258F137C259F1CAD8E5
:102C50004DC1E9FF4EC1EAFF020EE926000EEA224D
:102C6000380EEE6E020EED6E4DC1E9FF4EC1EAFF69
:102C7000C80EEF6E1200D9CFE6FFE1CFD9FF020EEA
:102C8000E126000EDE6E020EDD6EFD0EDB50E82446
:102C90000D6EFE0EDB50040DF3500D24040DF4CF29
:102CA0000CF0D9CFE9FFDACFEAFFF350EE260C5053
:102CB000ED22DECFE9FFDDCFEAFFEF9EFD0EDB5018
:102CC0000AE1FE0EEA6ADB34FE0BEA36E96E470ED5
:102CD000E926010E09D0FE0EEA6ADB34FE0BEA3665
:102CE000E96E4D0EE926010EEA22DECFEEFFDDCFC2
:102CF000EDFFDECFE9FFDDCFEAFFEF9CDECFE9FF9E
:102D0000DDCFEAFF040EE926000EEA22EF8C020E68
:102D1000E15C02E2E16AE552E16EE552E7CFD9FFFC
:102D200012006498010157BF2BD05CAF09D0020E8E
:102D3000546F735101E161DF0101716B706B12001F
:102D400045C1E9FF46C1EAFFEE52080EEF6E45C1EC
:102D5000E9FF46C1EAFF020EE926000EEA22300E24
:102D6000EE6E020EED6E45C1E9FF46C1EAFF8C0E24
:102D7000EF6E4DC1E9FF4EC1EAFF840EEF6E120007
:102D8000020130AF0DD00101010E546F725101E10B
:102D900034DF0101716B706B6F5123E1ACEF15F003
:102DA0000101020E546F45C1E9FF46C1EAFFEE5230
:102DB000080EEF6E45C1E9FF46C1EAFF020EE926A3
:102DC000000EEA22300EEE6E020EED6E45C1E9FFF6
:102DD00046C1EAFF840EEF6E716B706B6F5101E1BB
:102DE000BBDE1200D9CFE6FFE1CFD9FFE652080ED5
:102DF000DF6E0101585D000E59590AE258C1DFFF2C
:102E0000535102E1010E03D0530502E1020E536F4C
:102E1000DF500C6AE850585D586F0C505959596F83
:102E20004DC1E9FF4EC1EAFFEE52DFCFEFFF380E92
:102E3000616F020E626F57B118D0DF502DE055C19F
:102E4000F6FF56C1F7FF552B000E56230800F5502C
:102E5000E66E61C1E9FF62C1EAFF612B000E6223E9
:102E6000E552E750EF6EDF06E8D7DF5015E055C1B9
:102E7000E9FF56C1EAFF552B000E5623EF50E66ED0
:102E800061C1E9FF62C1EAFF612B000E6223E552D6
:102E9000E750EF6EDF06E9D7E552E552E7CFD9FFFD
:102EA0001200D9CFE6FFE1CFD9FF020EE12643C1E0
:102EB000E9FF44C1EAFFEE52EFCFDFFFDFCF0BF0B7
:102EC0000B5001015D5D000E5E5902E25DC1DFFF46
:102ED000DF500B6E0C6AE8505D5D5D6F0C505E5903
:102EE0005E6F010EDB6ADF50F36E010EDBCFF4FF85
:102EF000F350F45C16E2010EDB50EA6A380FE96E1B
:102F0000020EEA22EF50E66E5AC1E9FF5BC1EAFF0A
:102F10005A2B000E5B23E552E750EF6E010EDB2AC1
:102F2000E2D7000ED8805D55000E5E5527E245C100
:102F3000E9FF46C1EAFFEE52080EEF6E45C1E9FF18
:102F400046C1EAFF020EE926000EEA22380EEE6EB6
:102F5000020EED6E43C1E9FF44C1EAFFEF50400BA2
:102F600006E145C1E9FF46C1EAFFC80E05D045C1EB
:102F7000E9FF46C1EAFF880EEF6E28D045C1E9FFA0
:102F800046C1EAFFEE52080EEF6E45C1E9FF46C1A9
:102F9000EAFF020EE926000EEA22300EEE6E020E65
:102FA000ED6E45C1E9FF46C1EAFF840EEF6E5F5149
:102FB000601107E005D060C1FAFF01015F51F96EB1
:102FC000FADF01015C9F6F5101E1C6DD020EE15C99
:102FD00002E2E16AE552E16EE552E7CFD9FF120065
:102FE000D9CFE6FFE1CFD9FFE6520101578F020E9C
:102FF000E66EE66AE66A540EE66E0F0EE66E48EC82
:103000001EF00B6E050EE15E0B50300EE66EE66AAA
:10301000E66A000EE66E020EE66E48EC1EF00B6EDF
:10302000050EE15E0B50648CDF6A030EDF5C10E27C
:10303000DF50EA6A680FE96E010EEA22EF6ADF509C
:10304000EA6A6B0FE96E010EEA22EF6ADF2AEDD71A
:10305000010EE66EE66AE66A420EE66E010EE66E66
:1030600048EC1EF00B6E050EE15E0B50649C0101F6
:10307000080E4D6F020E4E6F000E436F020E446F2E
:1030800043C145F1466F32C241F1415102E1100E98
:1030900012D0010EE66EE66A410EE66E010EE66E95
:1030A000010EE66EE66A9CEC12F00B6E060EE15E17
:1030B0000B500101200E406FE552E552E7CFD9FFDA
:1030C0001200800E0201305D58E10101C00E576F01
:1030D00002013351030A2FE0010A09E0030A4BE120
:1030E0000101040E556F3A0E566F120E3ED032514A
:1030F000F66EF76AD890F636F736070EF6263B0ED0
:10310000F7220900F5CF55F10A00F5CF56F1020E6E
:103110000101F76A5525F66E5651F7220800F5CFE2
:1031200058F1030EF76A5525F66E5651F72208003E
:10313000F5CF59F11200030E325D1AE23251F66EEC
:10314000F76AD890F636F736090EF6263B0EF722C8
:103150000900F5CF55F10A00F5CF56F155C1F6FF3C
:1031600056C1F7FF0800F5500101586F596B120066
:103170000101576B12000101576B1200D9CFE6FF16
:10318000E1CFD9FF020EE1260201386B396B3051D5
:103190001F0B020A11E0030A0CE0010A3CE10101E5
:1031A000578F020138810101630535E1020138833F
:1031B00032D00101578F2FD00101578F020134BF48
:1031C0000BD034510F0BE96EEA6AD890E936EA3633
:1031D000470EE926010E0AD034510F0BE96EEA6A58
:1031E000D890E936EA364D0EE926010EEA22EECFF6
:1031F000DEFFEDCFDDFFDECFE9FFDDCFEAFFEF50F1
:10320000800B09E0DECFE9FFDDCFEAFFEF50040BD2
:1032100002E0010E386F010157AF07D0380E556F2D
:10322000020E566F5781020E586F020EE15C02E2E9
:10323000E16AE552E16EE552E7CFD9FF12000F01D6
:1032400053A115D043C1E9FF44C1EAFFEF50800804
:103250000DE14DC1E9FF4EC1EAFFEF50840806E1E0
:1032600043C1E9FF44C1EAFF8C0EEF6E5391629AAD
:1032700012006084629864820101010E646F000E86
:10328000E66EE66AE66EE66A750EE66EE66A9CEC47
:1032900012F00B6E060EE15E0B5012000101646B22
:1032A000000EE66EE66AE66EE66A740EE66EE66AA2
:1032B0009CEC12F00B6E060EE15E0B506492609473
:1032C00062A402D06294FCD71200D9CFE6FFE1CF0E
:1032D000D9FFE652FD0E0101651553E17E0E65151D
:1032E000E8407F0B040DF3CF43F1F4CF44F1000E1F
:1032F0004327020E442343C145F144C146F14575BD
:1033000043C1E9FF44C1EAFFEF503C0BE842E84209
:103310000D0835E1DF6A080EDF5C23E243C1E9FFF7
:1033200044C1EAFF020EE926000EEA22EE50EFCF7A
:10333000EAFFE96EEF50E66EDF50EA6A300FE96EA1
:10334000020EEA22E552E750EF6E43C1E9FF44C1A5
:10335000EAFF020EE926000EEA22EE2AEF22DF2A19
:10336000DAD743C1E9FF44C1EAFF020EE926000EA5
:10337000EA22300EEE6E020EED6E0DD807D03AD86E
:1033800005D0FD0E6515040801E159D8E552E55256
:10339000E7CFD9FF12000101536B6F6B726B736B38
:1033A000676B546B4DC1E9FF4EC1EAFFEF9E4D754F
:1033B0004DC1E9FF4EC1EAFFEF9E4D7545C1E9FFE2
:1033C00046C1EAFFEF9E576B586B596B5C6B5D6BA8
:1033D0005E6B8FD8000EE66EE66AE66EE66A030E56
:1033E000E66EE66A9CEC12F00B6E060EE15E0B5088
:1033F00091EF16F0020E0101545D02E151EF17F05A
:10340000546B67511AE145C1E9FF46C1EAFFEE522C
:10341000080EEF6E45C1E9FF46C1EAFF020EE9263C
:10342000000EEA22300EEE6E020EED6E45C1E9FF8F
:1034300046C1EAFF8C0EEF6E1200676B1200D9CF07
:10344000E6FFE1CFD9FFE6524DC1E9FF4EC1EAFFE9
:10345000EF50400B01E0010EDF6E01014D75080ECB
:10346000405D0BE132C25CFF0F015C5103E00101E2
:10347000100E02D00101040E406F540526E14DC12B
:10348000E9FF4EC1EAFF020EE926000EEA22380EDD
:10349000EE6E020EED6EA6DC020E0101535D06E13A
:1034A0004DC1E9FF4EC1EAFF840E0DD0DF5006E1A9
:1034B0004DC1E9FF4EC1EAFFC80E05D04DC1E9FF7D
:1034C0004EC1EAFF880EEF6E0FD05CAF0CD05F519B
:1034D000601107E005D060C1FAFF01015F51F96E8C
:1034E000FADF01015C9F546BE552E552E7CFD9FF4B
:1034F000120002013051600BE842E842E842E84223
:10350000E842000901E0120031510C0A50E00B0AB8
:103510003FE00C0A31E0010A22E00B0A1EE0020A39
:103520001CE0030A18E0080A10E0010A0CE00F0A88
:1035300008E0030A01E012000101578F080E406FF6
:10354000120061EF18F0F0EF17F00101410E556F16
:10355000010E566F0CD0BEEF18F0D8EF1AF03451B0
:103560000101556F566B420E5527010E56235781A8
:10357000010E586F578F12000101578F020134510D
:10358000EA6A420FE96E010EEA2232C2EFFF120030
:10359000000EE66EE66AE66EE66A020EE66EE66A21
:1035A0009CEC12F00B6E060EE15E0B501200120046
:1035B000D9CFE6FFE1CFD9FF050EE12602013205A2
:1035C00010E130511F0B00090CE10101578F030E70
:1035D0000201315D04E10101010E636F02D00101BE
:1035E000636B0201325101E011D130511F0B02080F
:1035F00001E00CD134510F0B000901E107D1345126
:103600000F0B020801E202D1200E0101405D01E032
:10361000FDD0578F020134BF16D034510F0BE96E25
:10362000EA6AD890E936EA36470EE926010EEA2220
:10363000EECFDEFFEDCFDDFF34510F0BEA6A6B0FEB
:10364000E96E010E15D034510F0BE96EEA6AD8907D
:10365000E936EA364D0EE926010EEA22EECFDEFF0C
:10366000EDCFDDFF34510F0BEA6A680FE96E010EF2
:10367000EA22020EEFCFDBFFD950020FE96EDACF5C
:10368000EAFFEF50010B03E1000EDF9401D0DF846D
:1036900034BF0BD034510F0BE96EEA6AD890E9368B
:1036A000EA36470EE926010E0AD034510F0BE96EB7
:1036B000EA6AD890E936EA364D0EE926010EEA228A
:1036C000DECFEEFFDDCFEDFF030E315D20E1DECF7B
:1036D000E9FFDDCFEAFFEF50800B11E034BF07D0E8
:1036E00034510F0BEA6A6B0FE96E010E06D03451AC
:1036F0000F0BEA6A680FE96E010EEA22EF82840E70
:10370000DECFE9FFDDCFEAFFE850EF127FD0DF74B4
:10371000DECFE9FFDDCFEAFFEF50800B1BE0DECF0D
:10372000E9FFDDCFEAFFEF9EDECFE9FFDDCFEAFF65
:10373000EF8C020EE66EE66ADECFE6FFDDCFE6FF37
:10374000050EE66EE66A9CEC12F00B6E060EE15E6C
:103750000B5005D0DECFE9FFDDCFEAFFEF8CDF7441
:10376000D950020FE96EDACFEAFFEF50020B07E102
:10377000DECFE9FFDDCFEAFFEF50800B2BE0020147
:1037800034BF07D034510F0BEA6A6B0FE96E010E9C
:1037900006D034510F0BEA6A680FE96E010EEA2277
:1037A000EF923B0E0B6EDECFE9FFDDCFEAFFE85074
:1037B000EF16020EE66EE66ADECFE6FFDDCFE6FF2D
:1037C000050EE66EE66A9CEC12F00B6E060EE15EEC
:1037D0000B5007D03B0EDECFE9FFDDCFEAFFE8500C
:1037E000EF16020134510F0B0C6A530F0B6E0F0EC4
:1037F0000C22030E0BC0DBFF040E0CC0DBFF030E1C
:10380000DBCFE9FF040EDBCFEAFFEF90050EE15CB2
:1038100002E2E16AE552E16EE552E7CFD9FF12001C
:10382000D9CFE6FFE1CFD9FFFD0EDB50A96EA66A26
:10383000A680A850E552E7CFD9FF1200D9CFE6FF06
:10384000E1CFD9FFE652DF6AA6B20ED0FD0EDB5003
:10385000A96EFC0EDB50A86E040EA66E550EA76E68
:10386000AA0EA76EA68202D0010EDF6EA6B2FED708
:10387000DF50E552E552E7CFD9FF1200D9CFE6FF7E
:10388000E1CFD9FF050EE126010EDF6EDB6AF90EEE
:10389000DBCFE9FFFA0EDBCFEAFFEF6A020EDB6A4D
:1038A000FC0EDB50F36E020EDBCFF4FFF350F45C42
:1038B0005EE2010EDB6A020EDB50E76EFD0EDBCF2F
:1038C0000BF0FE0EDBCF0CF0E7500B26000E0C22A7
:1038D0000BC0E6FF0CC0E6FFA3DFE552E552E76E42
:1038E000040EE7CFDBFF020EDB28E76E030EE7CF07
:1038F000DBFFFC0EDB50F36E030EDBCFF4FFF35067
:10390000F45C1EE2030EDB50E76EFD0EDBCF0BF026
:10391000FE0EDBCF0CF0E7500B26000E0C220BC086
:10392000E6FF0CC0E6FF7CDFE552E552F36E040EC5
:10393000DB50F35C02E1010EDB2A030EDB2AD9D750
:10394000FB0EDB04F36E010EDBCFF4FFF350F45CEF
:103950000BE3F90EDBCFE9FFFA0EDBCFEAFF040E33
:10396000DBCFEFFFDF6A03D0020EDB2A99D7DF50EF
:103970000B6E050EE15C02E2E16AE552E16E0B506E
:10398000E552E7CFD9FF1200D9CFE6FFE1CFD9FF4B
:10399000020EE126DF6A010EDB6AFB0EDB50F36EDE
:1039A000010EDBCFF4FFF350F45C1FE2FC0EDBCF23
:1039B000E6FF010EDB50E76EFD0EDBCF0BF0FE0ED7
:1039C000DBCF0CF0E7500B26000E0C220BC0E6FFFD
:1039D0000CC0E6FF33DFE552E552E552000902E094
:1039E000010EDF6E010EDB2AD8D7DF500B6E020E00
:1039F000E15C02E2E16AE552E16E0B50E552E7CF8D
:043A0000D9FF1200D8
:0C3A04001201000200000008EA2270001D
:103A100001000102000109024900020100C032094F
:103A200004000002030000000921110100012231FD
:103A3000000705810340000107050103400001095B
:103A40000401000203000000092111010001221DF0
:103A5000000705820340000107050203400001053D
:103A6000010905A1011500250135004501750195E4
:103A70000C05091901290C81029504810105010930
:103A800030093126FF0046FF00750895028102C00B
:103A90000600FF0901A10119012940150026FF00B8
:103AA000750895408100190129409100C00403095F
:103AB0000426034200690074002000540072006173
:103AC000006400650020004F006E00650020004C7F
:103AD00000540044002E00300352004500560049B7
:103AE000005600450020004D006900630072006F21
:103AF000002000450078002000470061006D00654F
:0F3B000000500061006400163AAD3AB13AD73A6E
:103B1000020130511F0B010801E01200060E315D59
:103B20002EE13351230A2BE0010A13E0030A27E1B7
:103B30003451010A07E0010A22E10101280E556F04
:103B40003A0E04D00101480E556F3A0E566F090E19
:103B500012D03451010A09E0010A11E101015F0E9E
:103B6000556F3A0E566F310E06D00101900E556F0B
:103B70003A0E566F1D0E586F596BC00E576F0201EB
:103B80003051600BE842E842E842E842E84201086E
:103B900001E0120031510B0A26E0080A19E0090A77
:103BA00011E0080A05E00B0A23E0080A21E01200F0
:103BB0000101740E556F010E566F010E586F596B4F
:103BC000C10E0FD00101800E576F33C274F1120085
:103BD0000101750E556F010E566F010E586F596B2E
:103BE000810E576F12000101800E576F32C275F1BE
:023BF0001200C1
:0E3BF2001E0EF66E100EF76E000EF86E00013D
:103C00000900F550FB6F0900F550FC6F03E1FB67FD
:103C100001D03DD00900F550F66F0900F550F76F5F
:103C20000900F550F86F09000900F550E96E090028
:103C3000F550EA6E090009000900F550F96F090016
:103C4000F550FA6F09000900F6CFFDF0F7CFFEF04E
:103C5000F8CFFFF0F6C0F6FFF7C0F7FFF8C0F8FFA7
:103C60000001F95302E1FA5307E00900F550EE6E46
:103C7000F907F8E2FA07F9D7FDC0F6FFFEC0F7FF33
:103C8000FFC0F8FF0001FB07000EFC5BBFD712006E
:103C9000FE0EE3CFE9FFFF0EE3CFEAFFE9CFF3FF2C
:103CA000EACFF4FFFB0EE35003E1FC0EE35009E022
:103CB000FB0EE30602E2FC0EE306FD0EE350EE6EA1
:103CC000F1D71200FE0EE3CFE9FFFF0EE3CFEAFFCC
:103CD000F36AF46AEE5203E0F34AF42AFBD71200C7
:103CE000000EF36E00EE00F0030E01D81200EA6041
:103CF00002D0EE6AFCD7F350E9601200EE6AFCD7FE
:103D000011EE00F021EE00F0F86A0A9CF9EC1DF0CB
:0C3D100003EC08F03DEC08F0FBD71200BB
:043D1C00F36AF46AE8
:103D2000F32A0F0B05E0D890F336F436E804FBE1F4
:023D300012007F
:0E3D3200312E302E314700000000000000004E
:103D40000000000000000000000000000000000073
:103D50000000000000000000000000000000000063
:103D60000000000000000000000000000000000053
:103D70000000000000000000000000000000000043
:0A3D80000004020001000000000032
:020000040030CA
:0100000000FF
:0100010032CC
:0100020021DC
:010003001EDE
:0100050000FA
:010006008178
:0100080003F4
:01000900C036
:01000A0003F2
:01000B00E014
:01000C0003F0
:01000D0040B2
:00000001FF
