:020000040000FA
:0610000007EF08F01200EA
:0A1008005C825C92110090EF10F082
:1010180000DE108610AC10211009026500020100E4
:10102800C032090400000001010000092401000188
:10103800090001010904010002010300000724015D
:1010480000014100062402010100062402020200F8
:101058000924030103010201000924030204010118
:1010680001000905010240000000000525010101F9
:10107800090581024000000000052501010326033F
:10108800420069007400200054007200610064008E
:10109800650020004F006E00650020004C005400E1
:1010A80044002E0020035200450056004900560017
:1010B8004500200055005300420020004D00490023
:1010C800440049001201000200000008EA220DFF56
:0B10D8000200010200010403090400F3
:10201B003C3D3E3F404142434445464748000E014C
:10202B00EC11F025EC19F027EC1DF004EC1CF01969
:10203B00EF10F007EF08F0608462986482010E34B1
:10204B006E000E2B6E000E4A6E750E496E000E4B17
:10205B006E000E4C6E000E4E6E000E4D6E7AEC1234
:10206B00F01200010E0F26000E1022112212223444
:10207B0050D8A443EF10F045EF10F04FEF10F02BBA
:10208B002A2B50D8A44CEF10F04EEF10F04FEF105E
:10209B00F02B681200000E346E000E4A6E740E495F
:1020AB006E000E4B6E000E4C6E000E4E6E000E4D03
:1020BB006E7AEC12F06492609465EF10F0629462A9
:1020CB00B46AEF10F06CEF10F064EF10F0000E2B11
:1020DB006E1200000E3C6E600E3C24D96EDA6A0064
:1020EB000EDA22DF50D8B47DEF10F07FEF10F086C0
:1020FB00EF10F0600E3C24D96EDA6A000EDA22DFA4
:10210B00063C2A0C0E3C648DEF10F08FEF10F07133
:10211B00EF10F012001B0EF66E200EF76E000EF88D
:10212B006E00EE7AF010EE0DF00900F5CFEEFFE544
:10213B0050E150FAE100EE60F01A0EEE6AE806FD8F
:10214B00E100EE01F03B0EEE6AE806FDE15C905C0F
:10215B0092000EF86E000114EF10F0476E44A4B914
:10216B00EF10F0BBEF10F0C0EF10F0000E3C6E471D
:10217B0050C4EC12F044A2C5EF10F0C7EF10F0CC36
:10218B00EF10F0010E3C6E4750C4EC12F0530E47AB
:10219B0024456E466A0F0E462245C0D9FF46C0DA6B
:1021AB00FF44C0DFFF12003EC044F03FC045F03C8F
:1021BB00C042F03DC043F0F3EF10F044C0D9FF45EF
:1021CB00C0DAFFDF50466E444A452A42C0D9FF436E
:1021DB00C0DAFF46C0DFFF424A432A4006D8A0417F
:1021EB0006402806E14128D8A4FEEF10F000EF11BD
:1021FB00F0E3EF10F01200416E14EF11F0000E42FD
:10220B006E4250CCEC13F0422A0C0E426410EF11CC
:10221B00F012EF11F006EF11F02DEF11F041503FDE
:10222B006E406A4050000AD8B41EEF11F02DEF112A
:10223B00F03F50000AD8B404EF11F0010AD8B42DC6
:10224B00EF11F0030AD8B42DEF11F02DEF11F012AE
:10225B00003E6E3DEF11F08A9E5EEF11F08B925EA9
:10226B00EF11F08B945EEF11F08B965EEF11F03E59
:10227B00503C6E3D6A3D50000AD8B447EF11F05EFA
:10228B00EF11F03C50000AD8B45EEF11F0010AD800
:10229B00B431EF11F0030AD8B434EF11F0010AD8BE
:1022AB00B437EF11F0070AD8B43AEF11F05EEF1123
:1022BB00F012003E6E6EEF11F08A8E8FEF11F08BE5
:1022CB00828FEF11F08B848FEF11F08B868FEF11D4
:1022DB00F03E503C6E3D6A3D50000AD8B478EF1189
:1022EB00F08FEF11F03C50000AD8B48FEF11F001D2
:1022FB000AD8B462EF11F0030AD8B465EF11F001FC
:10230B000AD8B468EF11F0070AD8B46BEF11F08F4D
:10231B00EF11F012000F0153A196EF11F098EF118E
:10232B00F0BFEF11F029C0D9FF2AC0DAFF800EDE13
:10233B0018D8A4A3EF11F0A5EF11F0BEEF11F01315
:10234B00C0D9FF14C0DAFF840EDE18D8A4B0EF1189
:10235B00F0B2EF11F0BEEF11F029C0D9FF2AC0DAAD
:10236B00FF0C0EDF6E29C0D9FF2AC0DAFF000EDB8F
:10237B008E5391629A1200000E1F6E000E206E009B
:10238B000E1D6E000E1E6E000E486E6D0E4824D98B
:10239B006EDA6A000EDA22010EDF6E600E4824D967
:1023AB006EDA6A000EDA22000EDF6E482A0C0E4837
:1023BB0064E2EF11F0E4EF11F0CBEF11F01E0E44DD
:1023CB006E010EB3EC10F0000E3C6E400E3D6E0233
:1023DB000E3E6E400E3F6E010E45EC17F03CC01DDD
:1023EB00F03DC01EF01200020E3618D8A400EF12FA
:1023FB00F002EF12F006EF12F084EC18F032EF124D
:10240B00F0000E366E3250D8A40EEF12F010EF1211
:10241B00F030EF12F020EE01F02750D9262850DAD9
:10242B0022080EDF6E20EE02F02750D9262850DA54
:10243B0022200EDE6E020EDD6E27C0D9FF28C0DA19
:10244B00FF0C0EDF6E27C0D9FF28C0DAFF000EDBB2
:10245B008E32EF12F0000E326E1200000E376E004D
:10246B000E306E000E2D6E000E2C6E000E326E00B6
:10247B000E366E13C0D9FF14C0DAFF7F0EDF1604C1
:10248B000E1318136E1450146E13C0D9FF14C0DA48
:10249B00FF7F0EDF16040E1318136E1450146E27E5
:1024AB00C0D9FF28C0DAFF7F0EDF16000E0C6E00BE
:1024BB000E0E6E000E0D6E000E046E000E066E00FC
:1024CB000E056E30EC16F0000E4A6E030E496E00D0
:1024DB000E4B6E000E4C6E000E4E6E000E4D6E7A55
:1024EB00EC12F0E4EC17F012008AEF12F002EC0899
:1024FB00F06FEC10F0C3EF12F002EC08F0C3EF1228
:10250B00F0C1EC11F0C3EF12F049C04FF04AC050CC
:10251B00F05050000AD8B499EF12F07F0AD8B4BC2F
:10252B00EF12F0C3EF12F04F50010AD8B486EF123E
:10253B00F0030AD8B4C3EF12F0010AD8B4C3EF12F8
:10254B00F0060AD8B4C3EF12F0770AD8B4C3EF126F
:10255B00F0010AD8B47CEF12F0070AD8B482EF125C
:10256B00F0010AD8B482EF12F0C3EF12F04F50FF14
:10257B000AD8B4C3EF12F0C3EF12F01200416E0091
:10258B000E426E020E436E3C503D6E3E6AD8903D3D
:10259B00363E3641503F6E406AD8903F364036D873
:1025AB00903F3640363D503F263E504022D8903F1C
:1025BB00364036D8903F3640363F50422640504347
:1025CB002242C0D9FF43C0DAFFDF9E3C50D8A4F1B2
:1025DB00EF12F0F3EF12F001EF13F04150020D1771
:1025EB000EF324D96E000EF420DA6E42C0DEFF43E8
:1025FB00C0DDFF0DEF13F04150020D130EF324D984
:10260B006E000EF420DA6E42C0DEFF43C0DDFF42E7
:10261B00C0D9FF43C0DAFFDF9C20EE04F04250D953
:10262B00264350DA22DF8C1200000E2D6E000E2C8A
:10263B006E020E3618D8A425EF13F027EF13F047D0
:10264B00EF13F020EE01F02750D9262850DA22089C
:10265B000EDF6E20EE02F02750D9262850DA222802
:10266B000EDE6E020EDD6E27C0D9FF28C0DAFF48E2
:10267B000EDF6E27C0D9FF28C0DAFF000EDB8E6F8E
:10268B00EF13F00D500201265D0E502759D8B051B3
:10269B00EF13F053EF13F057EF13F026C20DF027A3
:1026AB00C20EF0ABEC15F020EE02F01350D926144D
:1026BB0050DA22280EDE6E020EDD6E13C0D9FF1427
:1026CB00C0DAFF480EDF6E13C0D9FF14C0DAFF006B
:1026DB000EDB8E12002D0E316E39C05AF0FD0E5AE4
:1026EB0016D8A47BEF13F07DEF13F0BFEF13F03987
:1026FB00C05AF0D8905A323F0E5A165A50040D0059
:10270B000EF324296E020EF4202A6E29C027F02A1C
:10271B00C028F0040E2718276E2850286E29C0D920
:10272B00FF2AC0DAFFDF30E8320F0B0D0AD8A4A165
:10273B00EF13F0A3EF13F0BBEF13F0200E3C6E0280
:10274B000E3D6E20EE02F02950D9262A50DA22DEF9
:10275B00CF3EF0DDCF3FF0000E416E080E406ED93C
:10276B00EC10F033EC12F0CBEF13F0F9EC11F0CBE3
:10277B00EF13F03950FD0B040AD8A4C7EF13F0C9BF
:10278B00EF13F0CBEF13F028EC15F012003E6EFBBD
:10279B00EF13F094807E983CEF14F093887F943C79
:1027AB00EF14F094827E9A3CEF14F0938A7F963C60
:1027BB00EF14F094847E9C3CEF14F094867E9E3C48
:1027CB00EF14F0938C3CEF14F094883CEF14F093DF
:1027DB008E3CEF14F0948A3CEF14F0948C7F903C79
:1027EB00EF14F0948E7F923CEF14F03E503C6E3D14
:1027FB006A3D50000AD8B405EF14F03CEF14F03CDE
:10280B0050000AD8B4CFEF13F0010AD8B4D3EF13AA
:10281B00F0030AD8B4D7EF13F0010AD8B4DBEF13E7
:10282B00F0070AD8B4DFEF13F0010AD8B4E3EF13C3
:10283B00F0030AD8B4E7EF13F0010AD8B4EAEF13A8
:10284B00F00F0AD8B4EDEF13F0010AD8B4F0EF1380
:10285B00F0030AD8B43CEF14F0010AD8B4F3EF1329
:10286B00F0070AD8B4F7EF13F03CEF14F012000C9A
:10287B008E540E3C6E0F0E3D6E000E3F6E000E3EE4
:10288B006E000E416E010E406E74EC1AF0000E3CA1
:10289B006E020E3D6E000E3F6E000E3E6E000E4140
:1028AB006E200E406E74EC1AF0648C000E516E2389
:1028BB000E5124D96EDA6A000EDA22000EDF6E2179
:1028CB000E5124D96EDA6A000EDA22000EDF6E5139
:1028DB002A010E516474EF14F076EF14F05DEF14CF
:1028EB00F03A0E3C6E000E3D6E000E3F6E000E3E3B
:1028FB006E000E416E010E406E74EC1AF0649C0873
:10290B000E136E020E146E000E296E020E2A6E2925
:10291B00C027F02AC028F022C23BF03B50D8A49924
:10292B00EF14F09BEF14F09FEF14F0100E386EAF16
:10293B00EF14F0000E4A6E010E496E3B0E4B6E000B
:10294B000E4C6E000E4E6E010E4D6E7AEC12F02098
:10295B000E386E12002F50D8A4B6EF14F0B8EF1447
:10296B00F027EF15F0010E2F6E2E50D8A4C0EF14E8
:10297B00F0C2EF14F027EF15F0010E2E6E020E369B
:10298B0018D8A4CBEF14F0CDEF14F0E3EF14F02034
:10299B00EE01F01350D9261450DA22000EDF6E131D
:1029AB00C0D9FF14C0DAFF480EDF6E13C0D9FF1475
:1029BB00C0DAFF000EDB8E27EF15F03604D8A4E942
:1029CB00EF14F0EBEF14F027EF15F0000E326E2042
:1029DB00EE01F02950D9262A50DA22080EDF6E209C
:1029EB00EE02F02950D9262A50DA22200EDE6E0292
:1029FB000EDD6E29C0D9FF2AC0DAFF040EDF6E2967
:102A0B00C0D9FF2AC0DAFF000EDB8E010E326E201A
:102A1B00EE01F02750D9262850DA22080EDF6E205F
:102A2B00EE02F02750D9262850DA22200EDE6E0255
:102A3B000EDD6E27C0D9FF28C0DAFF800EDF6E27B0
:102A4B00EF15F0120013C0D9FF14C0DAFF000EDF30
:102A5B00BC010E3D6E040E1318136E1450146E0849
:102A6B000E3818D8A43CEF15F03EEF15F051EF15CA
:102A7B00F0020122517F0B0F015C6F5C51D8B449FE
:102A8B00EF15F04BEF15F04FEF15F0100E386E51B0
:102A9B00EF15F0040E386E3604D8A457EF15F05925
:102AAB00EF15F0A0EF15F020EE02F01350D926141D
:102ABB0050DA22280EDE6E020EDD6EABEC15F00244
:102ACB000E3718D8A46CEF15F06EEF15F07CEF15E0
:102ADB00F013C0D9FF14C0DAFF040EDF6E13C0D998
:102AEB00FF14C0DAFF000EDB8EAAEF15F03D50D8B5
:102AFB00A482EF15F084EF15F092EF15F013C0D907
:102B0B00FF14C0DAFF480EDF6E13C0D9FF14C0DA12
:102B1B00FF000EDB8EAAEF15F013C0D9FF14C0DA3D
:102B2B00FF080EDF6E13C0D9FF14C0DAFF000EDBF7
:102B3B008EAAEF15F004AEA5EF15F0A7EF15F0A8D0
:102B4B00EF15F0049E000E366E1200080E3C6E0E52
:102B5B005007E1080E0D5CD8B0B6EF15F0B8EF15C5
:102B6B00F0D0EF15F00DC03CF03750D8A4C0EF15E6
:102B7B00F0C2EF15F0C6EF15F0010E376ED0EF1562
:102B8B00F03704D8A4CCEF15F0CEEF15F0D0EF153D
:102B9B00F0020E376E3C500D5E000E0E5A20EE0109
:102BAB00F01350D9261450DA223CC0DFFF280E2533
:102BBB006E020E266E0CB0E5EF15F0E7EF15F02761
:102BCB00EF16F003EF16F009C0F6FF0AC0F7FFF897
:102BDB006A25C0E1FF26C0E2FF020EF76403D008AE
:102BEB0000F55005D0F6CFD9FFF7CFDAFFDF50E76E
:102BFB006E094A0A2A254A262A3C063C50D8A409C3
:102C0B00EF16F00BEF16F0E9EF15F02FEF16F009BA
:102C1B00C0F6FF0AC0F7FFF86A25C0E1FF26C0E245
:102C2B00FF020EF76403D00800F55005D0F6CFD99C
:102C3B00FFF7CFDAFFDF50E76E094A0A2A254A264B
:102C4B002A3C063C50D8A42DEF16F02FEF16F00DB2
:102C5B00EF16F0120002012039E832030B0009D8FD
:102C6B00B43AEF16F03CEF16F080EF16F0B9EF1612
:102C7B00F00C8E080E386EB9EF16F0CCEC19F0B9DB
:102C8B00EF16F03DEC14F0B9EF16F03B0E096E00A9
:102C9B000E0A6E0C80010E0D6E0C8EB9EF16F0BA8B
:102CAB00EC16F0B9EF16F05AEC1EF0B9EF16F03A3D
:102CBB000E2425096E0A6A000E0A224FEF16F00C3D
:102CCB008E3A0E2425D96EDA6A000EDA2222C2DF82
:102CDB00FFB9EF16F0000E4A6E020E496E000E4B56
:102CEB006E000E4C6E000E4E6E000E4D6E7AEC1298
:102CFB00F0B9EF16F02151586E596A5950000AD8A5
:102D0B00B48AEF16F0B9EF16F05850000AD8B45544
:102D1B00EF16F0010AD8B459EF16F0020AD8B459DD
:102D2B00EF16F0060AD8B43EEF16F0030AD8B443F8
:102D3B00EF16F0010AD8B470EF16F00F0AD8B44BA7
:102D4B00EF16F0010AD8B447EF16F0030AD8B45DBA
:102D5B00EF16F0010AD8B465EF16F0070AD8B4B92C
:102D6B00EF16F0B9EF16F01200000E0201286F00FB
:102D7B000E296F1CEF17F00C8E3504D8A4C8EF1674
:102D8B00F0CAEF16F036EF17F0288336EF17F00C7A
:102D9B008E36EF17F00C8E24510F0B0009D8B4D9D7
:102DAB00EF16F0DBEF16F036EF17F024BFE0EF165F
:102DBB00F0E2EF16F0F3EF16F024510F0B3C6E3CE4
:102DCB0050020D170EF324D96E000EF420DA6EDECE
:102DDB00CF3EF0DDCF3FF002EF17F024510F0B3C4D
:102DEB006E3C50020D130EF324D96E000EF420DA54
:102DFB006EDECF3EF0DDCF3FF03EC0D9FF3FC0DAF5
:102E0B00FFDFAE0BEF17F00DEF17F036EF17F03EBD
:102E1B00C0D9FF3FC0DAFFDFA416EF17F018EF178A
:102E2B00F036EF17F0010E286F36EF17F020511F19
:102E3B000B3C6E3D6A3D50000AD8B427EF17F036B5
:102E4B00EF17F03C50000AD8B4C1EF16F0010AD8C6
:102E5B00B4CDEF16F0030AD8B4D0EF16F036EF1757
:102E6B00F00CAE3BEF17F03DEF17F044EF17F028E7
:102E7B000E096E020E0A6E0C80020E0D6E120044CD
:102E8B006E3C50D8B44CEF17F04EEF17F05CEF17C9
:102E9B00F04450020D130EF324D96E000EF420DA19
:102EAB006EDECF45F0DDCF46F068EF17F0445002F1
:102EBB000D170EF324D96E000EF420DA6EDECF451B
:102ECB00F0DDCF46F045504610D8A46FEF17F071E8
:102EDB00EF17F077EF17F0000E3C6E000E3D6EE330
:102EEB00EF17F020EE02F04550D9264650DA223D7E
:102EFB00C0DEFF3EC0DDFF20EE01F04550D9264677
:102F0B0050DA223FC0DFFF45C0D9FF46C0DAFF4091
:102F1B000EDF1645C0D9FF46C0DAFF000EDB864533
:102F2B00C0D9FF46C0DAFF000EDB8E3C50D8B4A1EF
:102F3B00EF17F0A3EF17F0C2EF17F04450020D1389
:102F4B000EF324D96E000EF420DA6EDECF40F0DDE6
:102F5B00CF41F0040E4018426E4150436E44500274
:102F6B000D130EF324D96E000EF420DA6E42C0DE80
:102F7B00FF43C0DDFFDFEF17F04450020D170EF3D8
:102F8B0024D96E000EF420DA6EDECF40F0DDCF4197
:102F9B00F0040E4018426E4150436E4450020D1720
:102FAB000EF324D96E000EF420DA6E42C0DEFF431E
:102FBB00C0DDFF45C03CF046C03DF0120064980CEC
:102FCB00BEEAEF17F0ECEF17F031EF18F004AEF1AB
:102FDB00EF17F0F3EF17F005EF18F0020E366E2C2B
:102FEB0050D8A4FBEF17F0FDEF17F0FFEF17F01A17
:102FFB00EC13F0000E2E6E000E2F6E83EF18F020E8
:10300B00EE01F02750D9262850DA22080EDF6E2069
:10301B00EE02F02750D9262850DA22200EDE6E025F
:10302B000EDD6E27C0D9FF28C0DAFF0C0EDF6E272E
:10303B00C0D9FF28C0DAFF000EDB8E13C0D9FF14F6
:10304B00C0DAFF040EDF6E13C0D9FF14C0DAFF0025
:10305B000EDB8E83EF18F0020120AF37EF18F0393B
:10306B00EF18F055EF18F0010E366E2D50D8A44125
:10307B00EF18F043EF18F045EF18F01AEC13F000CF
:10308B000E2E6E000E2F6E3050D8A44FEF18F0514D
:10309B00EF18F083EF18F0B0EC14F083EF18F00298
:1030AB000E366E20EE01F02750D9262850DA220872
:1030BB000EDF6E20EE02F02750D9262850DA2220A0
:1030CB000EDE6E020EDD6E27C0D9FF28C0DAFF04BC
:1030DB000EDF6E27C0D9FF28C0DAFF000EDB8E0093
:1030EB000E2E6E000E2F6E3050D8A47FEF18F0818D
:1030FB00EF18F083EF18F051EF18F0120020EE01EB
:10310B00F02950D9262A50DA22DF503D6E3D50056A
:10311B005C000E0658D8B095EF18F097EF18F099A1
:10312B00EF18F005C03DF03D50055E000E065A004D
:10313B000E3C6EB0EF18F0280E3C24D96EDA6A0202
:10314B000EDA2201C0E1FF02C0E2FFDFCFE7FF0191
:10315B004A022A3C2A3D503C5CD8A0B7EF18F0B984
:10316B00EF18F0A1EF18F005500610D8B4C0EF1807
:10317B00F0C2EF18F0FBEF18F020EE01F02750D95A
:10318B00262850DA22080EDF6E20EE02F02750D9E7
:10319B00262850DA22280EDE6E020EDD6E29C0D9EB
:1031AB00FF2AC0DAFFDFBCDDEF18F0DFEF18F0ED20
:1031BB00EF18F027C0D9FF28C0DAFF480EDF6E27C3
:1031CB00C0D9FF28C0DAFF000EDB8E24EF19F027E1
:1031DB00C0D9FF28C0DAFF080EDF6E27C0D9FF2841
:1031EB00C0DAFF000EDB8E24EF19F020EE01F02782
:1031FB0050D9262850DA22080EDF6E20EE02F02777
:10320B0050D9262850DA22200EDE6E020EDD6E27F4
:10321B00C0D9FF28C0DAFF040EDF6E27C0D9FF2804
:10322B00C0DAFF000EDB8E049E3050D8A420EF19BD
:10323B00F022EF19F024EF19F0B0EC14F01200A00B
:10324B0094000E0F015F6F000E626E000E536F54F1
:10325B000E3C6E0F0E3D6E000E3F6E000E3E6E006E
:10326B000E416E010E406E74EC1AF0160E616E9FDD
:10327B000E0F015B6F7B0E606E000E486E485004A4
:10328B000D000EF324D96E020EF420DA6EDE6ADE28
:10329B006ADE6ADD6A482A070E486457EF19F0594F
:1032AB00EF19F044EF19F0648C000E0F015C6F64A2
:1032BB0098649C6296000E0C6E000E046E000E0657
:1032CB006E000E056E62B66DEF19F06FEF19F05FC1
:1032DB00EF19F0010E2F6E010E2E6E000E2D6E00EB
:1032EB000E2C6E000E346E000E486E4850020D13FD
:1032FB000EF324D96E000EF420DA6E000EDE6E0093
:10330B000EDD6E4850020D170EF324D96E000EF42D
:10331B0020DA6E000EDE6E000EDD6E230E4824D911
:10332B006EDA6A000EDA22000EDF6E210E4824D907
:10333B006EDA6A000EDA22000EDF6E482A010E48A2
:10334B0064AAEF19F0ACEF19F07BEF19F0080E132C
:10335B006E020E146E160E0F01536F020E02010356
:10336B006F200E026F080E016F040E006F008F00AE
:10337B000E3B6E000E0F6E000E106E000E116E00E7
:10338B000E126E000E2B6E000E386E1200800E02A7
:10339B00012019D8A4D4EF19F0D6EF19F073EF1A56
:1033AB00F0C00E0C6E5AEF1AF0CC0E096E100E0A0E
:1033BB006E000E0E6E120E0D6E73EF1AF02251D8B8
:1033CB00A4EAEF19F0ECEF19F02AEF1AF0225102F0
:1033DB000D1F0EF324F66E100EF420F76E0900F598
:1033EB00CF09F00A00F5CF0AF0020E09243C6E005B
:1033FB000E0A203D6E3CC0F6FF3DC0F7FFF86A0297
:10340B000EF76403D00800F55005D0F6CFE1FFF7B7
:10341B00CFE2FFE7500D6E030E09243C6E000E0A3F
:10342B00203D6E3CC0F6FF3DC0F7FFF86A020EF779
:10343B006403D00800F55005D0F6CFE1FFF7CFE2DB
:10344B00FFE7500E6E73EF1AF0000E0C6E73EF1A4F
:10345B00F0030E226134EF1AF036EF1AF02AEF1A4E
:10346B00F02251020D190EF324F66E100EF420F714
:10347B006E0900F5CF09F00A00F5CF0AF009C0F686
:10348B00FF0AC0F7FFF86A020EF76403D00800F5D5
:10349B005005D0F6CFE1FFF7CFE2FFE7503C6E3C93
:1034AB00500D6E0E6A73EF1AF023513C6E3D6A3D60
:1034BB0050000AD8B464EF1AF02AEF1AF03C50010E
:1034CB000AD8B4DAEF19F0030AD8B4E4EF19F00113
:1034DB000AD8B42EEF1AF02AEF1AF012003CC046AD
:1034EB00F03DC047F040504110D8A47FEF1AF08157
:1034FB00EF1AF083EF1AF02EEF1BF046C0D9FF47FF
:10350B00C0DAFF3EC0DFFF40504624426E415047B9
:10351B0020436EFF0E4224D96EFF0E4320DA6E3E1F
:10352B00C0DFFF415007E1030E405CD8B0A0EF1A9B
:10353B00F0A2EF1AF0A4EF1AF02EEF1BF020EE0121
:10354B00F04650D9264750DA223EC0DFFF20EE026C
:10355B00F04650D9264750DA223EC0DFFF40504696
:10356B0024426E41504720436EFE0E4224D96EFF1B
:10357B000E4320DA6E3EC0DFFF40504624426E41C0
:10358B00504720436EFD0E4224D96EFF0E4320DAC6
:10359B006E3EC0DFFF415007E1070E405CD8B0D94B
:1035AB00EF1AF0DBEF1AF0DDEF1AF02EEF1BF02025
:1035BB00EE03F04650D9264750DA223EC0DFFF40DB
:1035CB00504624426E41504720436EFC0E4224D994
:1035DB006EFF0E4320DA6E3EC0DFFF415007E1095C
:1035EB000E405CD8B0FCEF1AF0FEEF1AF000EF1BA8
:1035FB00F02EEF1BF046C042F047C043F0421E4393
:10360B001E424A432A030E4214446E456A445046F6
:10361B0026455047224450405E4550415AFC0E40CF
:10362B0016FF0E411625EF1BF046C0D9FF47C0DA37
:10363B00FF3EC0DFFF4006D8A04106464A472A405E
:10364B00504110D8A42CEF1BF02EEF1BF01AEF1BE0
:10365B00F012003E6EC1EF1BF082A037EF1BF03A69
:10366B00EF1BF0010E3BEF1BF0000E03EF1CF08184
:10367B00A842EF1BF045EF1BF0010E46EF1BF000CD
:10368B000E03EF1CF082A24DEF1BF050EF1BF0016D
:10369B000E51EF1BF0000E03EF1CF081AA58EF1B2D
:1036AB00F05BEF1BF0010E5CEF1BF0000E03EF1C49
:1036BB00F082A463EF1BF066EF1BF0010E67EF1BAC
:1036CB00F0000E03EF1CF082A66EEF1BF071EF1BE8
:1036DB00F0010E72EF1BF0000E03EF1CF081AC79C2
:1036EB00EF1BF07CEF1BF0010E7DEF1BF0000E03C8
:1036FB00EF1CF082A884EF1BF087EF1BF0010E8804
:10370B00EF1BF0000E03EF1CF081AE8FEF1BF0925E
:10371B00EF1BF0010E93EF1BF0000E03EF1CF0827A
:10372B00AA9AEF1BF09DEF1BF0010E9EEF1BF00012
:10373B000E03EF1CF080A6A5EF1BF0A8EF1BF0010A
:10374B000EA9EF1BF0000E03EF1CF082ACB0EF1BC9
:10375B00F0B3EF1BF0010EB4EF1BF0000E03EF1CE8
:10376B00F082AEBBEF1BF0BEEF1BF0010EBFEF1BE9
:10377B00F0000E03EF1CF03E503C6E3D6A3D5000D6
:10378B000AD8B4CBEF1BF002EF1CF03C50000AD868
:10379B00B432EF1BF0010AD8B43DEF1BF0030AD88B
:1037AB00B448EF1BF0010AD8B453EF1BF0070AD84B
:1037BB00B45EEF1BF0010AD8B469EF1BF0030AD813
:1037CB00B474EF1BF0010AD8B47FEF1BF00F0AD8CB
:1037DB00B48AEF1BF0010AD8B495EF1BF0030AD89B
:1037EB00B4A0EF1BF0010AD8B4ABEF1BF0070AD85B
:1037FB00B4B6EF1BF002EF1CF0000E12001F0E38D8
:10380B00640AEF1CF00CEF1CF026EF1DF064A21104
:10381B00EF1CF013EF1CF015EF1CF026EF1DF01D45
:10382B00501E10D8B41CEF1CF01EEF1CF029EF1C1F
:10383B00F01DC0D9FF1EC0DAFFDFBE27EF1CF02939
:10384B00EF1CF038EF1CF0000E3C6E400E3D6E028C
:10385B000E3E6E400E3F6E010E45EC17F03CC01D48
:10386B00F03DC01EF0000E486E48502FEC1BF0E8E8
:10387B0006D8A443EF1CF045EF1CF0B3EF1CF0602F
:10388B000E4824D96EDA6A000EDA22DF50D8A45122
:10389B00EF1CF053EF1CF01DEF1DF06D0E4824D9FB
:1038AB006EDA6A000EDA22DE04D8A45FEF1CF06138
:1038BB00EF1CF01DEF1DF01F502010D8B468EF1C4B
:1038CB00F06AEF1CF075EF1CF01FC0D9FF20C0DAB7
:1038DB00FFDFBE73EF1CF075EF1CF0B1EF1CF06057
:1038EB000E4824D96EDA6A000EDA22140EDF6E004F
:1038FB000E0201C06F000EC16F000EC26F000EC32F
:10390B006F0F0EC017C051F00B0909C06F900EC19D
:10391B006F7A0E4824D96EDA6A000EDA22DF50C2B3
:10392B006F7F0EC36F010E3C6EC00E3D6E020E3EDE
:10393B006E040E3F6E010E45EC17F03CC01FF03DC0
:10394B00C020F06D0E4824D96EDA6A000EDA220020
:10395B000EDF6E1DEF1DF01DEF1DF0600E4824D91C
:10396B006EDA6A000EDA22DF50D8A4BFEF1CF0C16A
:10397B00EF1CF01DEF1DF06D0E4824D96EDA6A00B6
:10398B000EDA22DF50D8A4CDEF1CF0CFEF1CF01DC8
:10399B00EF1DF01F502010D8B4D6EF1CF0D8EF1C41
:1039AB00F0E3EF1CF01FC0D9FF20C0DAFFDFBEE150
:1039BB00EF1CF0E3EF1CF01DEF1DF0600E4824D957
:1039CB006EDA6A000EDA22140EDF6E000E0201C0F0
:1039DB006F000EC16F000EC26F000EC36F0F0EC0D3
:1039EB0017C051F00B0909C06F900EC16F7A0E48CA
:1039FB0024D96EDA6A000EDA22DF50C26F000EC3D2
:103A0B006F010E3C6EC00E3D6E020E3E6E040E3FFD
:103A1B006E010E45EC17F03CC01FF03DC020F06D61
:103A2B000E4824D96EDA6A000EDA22010EDF6E48D8
:103A3B002A0C0E486424EF1DF026EF1DF03AEF1C04
:103A4B00F012003850D8A42DEF1DF02FEF1DF046CB
:103A5B00EF1DF0000E646E000E606E160E616E9F11
:103A6B000E0F015B6F7B0E606E3DEF1DF064866485
:103A7B00A642EF1DF044EF1DF03CEF1DF0010E3898
:103A8B006E3804D8A44CEF1DF04EEF1DF05DEF1D0A
:103A9B00F064BA53EF1DF055EF1DF05DEF1DF00014
:103AAB000E626E000E606E60806088020E386E6271
:103ABB00A462EF1DF064EF1DF06EEF1DF060A469C2
:103ACB00EF1DF06BEF1DF06EEF1DF0629450EC10DC
:103ADB00F064A273EF1DF075EF1DF078EF1DF0A1F0
:103AEB009459EF1EF062A07DEF1DF07FEF1DF08B60
:103AFB00EF1DF060A084EF1DF086EF1DF08BEF1D26
:103B0B00F025EC19F0040E386E629062A890EF1D50
:103B1B00F092EF1DF09BEF1DF060A897EF1DF09951
:103B2B00EF1DF09BEF1DF021EC10F062ACA0EF1D30
:103B3B00F0A2EF1DF0CDEF1DF060ACA7EF1DF0A9CB
:103B4B00EF1DF0B7EF1DF0000E4A6E730E496E00BD
:103B5B000E4B6E000E4C6E000E4E6E010E4D6E7ABD
:103B6B00EC12F0629C37EC10F03150D8B4C0EF1D62
:103B7B00F0C2EF1DF0C3EF1DF031063150D8A4C9D0
:103B8B00EF1DF0CBEF1DF0CDEF1DF0B0EC14F0629C
:103B9B00AAD2EF1DF0D4EF1DF0DDEF1DF060AAD916
:103BAB00EF1DF0DBEF1DF0DDEF1DF090EC11F0627F
:103BBB00A2E2EF1DF0E4EF1DF0FBEF1DF060A2E9B8
:103BCB00EF1DF0EBEF1DF0FBEF1DF07F0E4A6E4982
:103BDB0068000E4B6E000E4C6E000E4E6E010E4DBD
:103BEB006E7AEC12F0000E0F015F6F040E3860015D
:103BFB00EF1EF003EF1EF006EF1EF0A19459EF1E1F
:103C0B00F060A60BEF1EF00DEF1EF058EF1EF0004C
:103C1B000E5B6E62A614EF1EF016EF1EF058EF1E31
:103C2B00F063CF39F03930E832E8320F0B336E6284
:103C3B009639B423EF1EF025EF1EF02EEF1EF02168
:103C4B000E3324D96EDA6A000EDA22DF7035EF1EDE
:103C5B00F0230E3324D96EDA6A000EDA22DF7033CA
:103C6B0050D8A43BEF1EF03DEF1EF041EF1EF0705D
:103C7B00EC13F04FEF1EF0000E4A6E720E496E39C8
:103C8B000E4B6E000E4C6E000E4E6E000E4D6E7A8D
:103C9B00EC12F05B2A030E5B6456EF1EF058EF1E1E
:103CAB00F00FEF1EF0A194120002012205D8A461BF
:103CBB00EF1EF063EF1EF07DEF1EF020511F0B0087
:103CCB0009D8A46BEF1EF06DEF1EF07DEF1EF00C0C
:103CDB008E030E2119D8A475EF1EF077EF1EF07B23
:103CEB00EF1EF0010E356E7DEF1EF0000E356E22CD
:103CFB0051D8A483EF1EF085EF1EF0FFEF1FF020CD
:103D0B00511F0B020AD8A48DEF1EF08FEF1EF0FF90
:103D1B00EF1FF024510F0B0009D8B497EF1EF09949
:103D2B00EF1EF0FFEF1FF024510F0B516E020E51DF
:103D3B0060A2EF1EF0A4EF1EF0FFEF1FF0200E3875
:103D4B0018D8A4ABEF1EF0ADEF1EF0FFEF1FF00C79
:103D5B008E24BFB3EF1EF0B5EF1EF0D2EF1EF02492
:103D6B00510F0B516E5150020D170EF324D96E00EB
:103D7B000EF420DA6EDECF56F0DDCF57F024510F64
:103D8B000B516E526A210E5124D96E000E5220DA5D
:103D9B006EDF50556EEDEF1EF024510F0B516E512F
:103DAB0050020D130EF324D96E000EF420DA6EDEE2
:103DBB00CF56F0DDCF57F024510F0B516E526A23C3
:103DCB000E5124D96E000E5220DA6EDF50556E550F
:103DDB00B0F2EF1EF0F4EF1EF0FCEF1EF0FB0E56F0
:103DEB0014566EFF0E5714576E01EF1FF0040E564C
:103DFB0010566E5750576E24BF06EF1FF008EF1F7B
:103E0B00F019EF1FF024510F0B516E5150020D178B
:103E1B000EF324D96E000EF420DA6E56C0DEFF5777
:103E2B00C0DDFF28EF1FF024510F0B516E515002D4
:103E3B000D130EF324D96E000EF420DA6E56C0DE8D
:103E4B00FF57C0DDFF030E2119D8A42FEF1FF03150
:103E5B00EF1FF069EF1FF056C0D9FF57C0DAFFDF35
:103E6B00AE3AEF1FF03CEF1FF05BEF1FF024BF41AA
:103E7B00EF1FF043EF1FF050EF1FF024510F0B51CA
:103E8B006E526A210E5124D96E000E5220DA6EDF6B
:103E9B00825BEF1FF024510F0B516E526A230E51B0
:103EAB0024D96E000E5220DA6EDF8256C0D9FF572E
:103EBB00C0DAFF000EDB8456C0D9FF57C0DAFF0013
:103ECB000EDB8EFFEF1FF0040E5618566E57505731
:103EDB006E56C0D9FF57C0DAFFDFAE77EF1FF07910
:103EEB00EF1FF095EF1FF056C0D9FF57C0DAFF7FD9
:103EFB000EDF1656C0D9FF57C0DAFF000EDB8C0061
:103F0B000E4A6E050E496E56C04BF057C04CF00072
:103F1B000E4E6E020E4D6E7AEC12F09BEF1FF056AA
:103F2B00C0D9FF57C0DAFF000EDB8C040E561856B3
:103F3B006E5750576E55B2A5EF1FF0A7EF1FF0B29B
:103F4B00EF1FF056C0D9FF57C0DAFFDFAEB0EF1F3F
:103F5B00F0B2EF1FF0E8EF1FF0020124BFB8EF1F24
:103F6B00F0BAEF1FF0C7EF1FF024510F0B516E5239
:103F7B006A210E5124D96E000E5220DA6EDF92D2D6
:103F8B00EF1FF024510F0B516E526A230E5124D99F
:103F9B006E000E5220DA6EDF9256C0D9FF57C0DA90
:103FAB00FF3B0EDF16000E4A6E050E496E56C04BD8
:103FBB00F057C04CF0000E4E6E020E4D6E7AEC12A6
:103FCB00F0EEEF1FF056C0D9FF57C0DAFF3B0EDF04
:103FDB0016020124510F0B516E526A530E5124538A
:103FEB006E0F0E5220546E53C0D9FF54C0DAFFFE31
:053FFB000EDF161200AC
:020000040020DA
:08000000FFFFFFFFFFFFFFFF00
:020000040030CA
:0E0000000032011EFF0081FF03C003E0034039
:00000001FF
